{
  "contractName": "Fibonacci",
  "abi": [
    {
      "constant": false,
      "inputs": [
        {
          "name": "n",
          "type": "uint256"
        }
      ],
      "name": "generateFib",
      "outputs": [],
      "payable": false,
      "stateMutability": "nonpayable",
      "type": "function",
      "signature": "0x2ddec39b"
    }
  ],
  "bytecode": "0x608060405234801561001057600080fd5b5061020a806100206000396000f3fe608060405260043610610041576000357c0100000000000000000000000000000000000000000000000000000000900463ffffffff1680632ddec39b14610046575b600080fd5b34801561005257600080fd5b5061007f6004803603602081101561006957600080fd5b8101908080359060200190929190505050610081565b005b60006001908060018154018082558091505090600182039060005260206000209060209182820401919006909192909190916101000a81548160ff021916908360ff1602179055505060006001908060018154018082558091505090600182039060005260206000209060209182820401919006909192909190916101000a81548160ff021916908360ff160217905550506000600190505b818110156101da576000806002830381548110151561013557fe5b90600052602060002090602091828204019190069054906101000a900460ff1660006001840381548110151561016757fe5b90600052602060002090602091828204019190069054906101000a900460ff1603908060018154018082558091505090600182039060005260206000209060209182820401919006909192909190916101000a81548160ff021916908360ff16021790555050808060010191505061011a565b505056fea165627a7a72305820a80e3078a7464cbc48f356c91806de81111e3d9b17e5f282b9ae379a64f6ea130029",
  "source": "pragma solidity ^0.5.0;\n\ncontract Fibonacci {\n    /// correct\n    // uint[] fibseries;\n\n    /// bad\n    uint8[] fibseries;\n\n    // n = how many in the series to return\n    function generateFib(uint n) public {\n\n        // set 1st and second entries\n        fibseries.push(1);\n        fibseries.push(1);\n\n        // generate subsequent entries\n\n        /// correct\n        // for (uint i = 2; i < n; i++) {\n\n        /// bad\n        for (uint i = 1; i < n; i++) {\n\n            /// correct\n            // fibseries.push(fibseries[i - 1] + fibseries[i - 2]);\n\n            /// bad\n            fibseries.push(fibseries[i - 1] - fibseries[i - 2]);\n        }\n    }\n}\n\n",
  "sourcePath": "/Users/shotakikuchi/Documents/Blockchain/truffle_suite_tutorials/GOING_DEEPER_WITH_THE_TRUFFLE_SOLIDITY_DEBUGGER/fibonacci/contracts/Fibonacci.sol",
  "compiler": {
    "name": "solc",
    "version": "0.5.0+commit.1d4f565a.Emscripten.clang"
  },
  "schemaVersion": "3.0.0",
  "updatedAt": "2019-01-21T03:05:44.761Z",
  "devdoc": {
    "methods": {}
  },
  "userdoc": {
    "methods": {}
  }
}